:0300000002004CAF
:200008000000E2FBEAF2802C0000E0FBEAF08024E6B50202EBF62200E2B50202EBF22200DE
:20002800E0B50202EBF02230F6E0A88220F5D3EAC6F582228B822230F6E6A88220F5D980EE
:01004800CFE8
:0300A5000200490D
:030049000200A80A
:1400A8007F098F82C0071200DD9003E81200BCD0071F80EE48
:2000BC00AE82AF83EE4F7001228E048F051EBEFF011FEC4D600A7D0B7C78DCFEDDFA80E998
:0100DC002201
:2000DD00E582FF24F6500122EF75F003A42436FE740135F0FF7D00ED2DF5F005F0740180BE
:2000FD000225E0D5F0FBF590ED2EF582E43FF583E493F4FC741F5CF580900002C007C00680
:15011D00C0051200BCD005D006D0077580FF0DBD030040C322D2
:1E0136001F111F001F0017151515151F1C1F041D15171F050710101F1F151F1C1C1F17
:06007B00E478FFF6D8FD59
:200059007900E94400601B7A00900154780175A000E493F2A308B8000205A0D9F4DAF275F8
:02007900A0FFE6
:200081007800E84400600A790175A000E4F309D8FC7800E84400600C7900900001E4F0A37D
:0400A100D8FCD9FAB4
:0D004C00758107120132E582600302004950
:0401320075820022B0
:00000001FF
